:020000040800F2
:10000000A040012021030008C1240008F1190008C4
:10001000452400089F120008473C0008000000002B
:10002000000000000000000000000000690200085D
:100030000F18000800000000BD020008292C00086D
:100040003B0300083B0300083B0300083B03000898
:100050003B0300083B0300083B0300083B03000888
:100060003B0300083B0300083B0300083B03000878
:100070003B0300083B0300083B0300083B03000868
:100080003B0300083B0300083B0300083B03000858
:100090003B0300083B0300083B030008111800085D
:1000A0003B0300083B0300083B0300083B03000838
:1000B0003B0300083B0300083B0300083B03000828
:1000C0003B0300083B0300083B0300083B03000818
:1000D0003B0300082D3900083B0300086139000884
:1000E0003B0300083B0300083B0300083B030008F8
:1000F000752D00083B0300083B0300083B03000884
:100100003B0300083B0300083B0300083B030008D7
:100110003B0300083B030008A12C00083B03000838
:100120003B0300083B0300083B0300083B030008B7
:100130003B0300083B0300083B0300083B030008A7
:100140003B0300083B0300083B0300083B03000897
:100150003B030008A5120008D5120008E939000881
:100160003B0300083B0300083B0300083B03000877
:100170003B0300083B0300083B0300083B03000867
:100180003B0300083B03000800F002F800F05CF8B5
:100190000AA090E8000C82448344AAF10107DA45E2
:1001A00001D100F051F8AFF2090EBAE80F0013F0D8
:1001B000010F18BFFB1A43F001031847CC98000049
:1001C000EC9800000A444FF0000C10F8013B13F0CB
:1001D000070408BF10F8014B1D1108BF10F8015BA0
:1001E000641E05D010F8016B641E01F8016BF9D193
:1001F00013F0080F1EBF10F8014BAD1C0C1B09D1EA
:100200006D1E58BF01F801CBFAD505E014F8016B5B
:1002100001F8016B6D1EF9D59142D6D370470000ED
:100220000023002400250026103A28BF78C1FBD8FF
:10023000520728BF30C148BF0B6070471FB509F097
:10024000E4FA1FBD10B510BD00F006FA1146FFF725
:10025000F5FF06F06FF900F024FA03B4FFF7F2FFA0
:1002600003BC05F07DFC00002A4B19680868B0E863
:10027000F04F80F30988BFF36F8F4FF0000080F3D9
:10028000118870470000000006480068006880F38D
:10029000088862B661B6BFF34F8FBFF36F8F00DF80
:1002A00000BF00BF08ED00E0DFF80C00016841F47A
:1002B00070010160704700BF88ED00E0EFF3098036
:1002C000BFF36F8F134B1A681EF0100F08BF20ED9D
:1002D000108A20E9F04F106008B44FF0500080F30E
:1002E0001188BFF34F8FBFF36F8F07F0CBFC4FF038
:1002F000000080F3118808BC19680868B0E8F04F66
:100300001EF0100F08BFB0EC108A80F30988BFF30D
:100310006F8F7047B4010020EFF305807047000035
:100320000948804709480047FEE7FEE7FEE7FEE789
:10033000FEE7FEE7FEE7FEE7FEE7FEE704480549C5
:10034000054A064B70470000392C00088901000857
:10035000A03A0120A0400120A03C0120A03C0120A7
:10036000704710B54C1084EA530404D54042C1F1E3
:10037000000138BF491E1B4204D55242C3F100039D
:1003800038BF5B1E00F062F814F0804F04D040428A
:10039000C1F1000138BF491E14F0004F04D0524291
:1003A000C3F1000338BF5B1E10BD032A40F230804A
:1003B00010F0030C00F0158011F8013BBCF1020FA6
:1003C000624498BF11F801CB00F8013B38BF11F827
:1003D000013BA2F1040298BF00F801CB38BF00F83E
:1003E000013B11F0030300F0B380083AC0F008802D
:1003F00051F8043B083A51F804CBA0E80810F5E79F
:10040000121D5CBF51F8043B40F8043BAFF3008081
:10041000D20724BF11F8013B11F801CB48BF11F8F6
:10042000012B24BF00F8013B00F801CB48BF00F8C6
:10043000012B704702F0FF0343EA032242EA024223
:1004400000F0BAB8704770477047704753EA020C23
:1004500000F069802DE9F04B4FF00006002B1FBF24
:10046000B3FA83F503FA05F424FA05F65E4012BFE9
:100470001643B2FA82F502FA05F4C5F120051EBF53
:1004800022FA05FC44EA0C04203556EA044C4FEAF3
:10049000144418BF641C4FF000084FF0000990424C
:1004A00071EB030C39D3002919BFB1FA81F701FAB6
:1004B00007F6B0FA80F700FA07F6C7F120071EBF6B
:1004C00020FA07FC46EA0C062037B6FBF4FCA7EB43
:1004D0000507103F07F01F0BCBF120060CFA0BFBB2
:1004E0002CFA06F644BFB3460026202FA4BF5E4672
:1004F0004FF0000B5BEA060C08BF4FF0010B19EB45
:100500000B09ABFB027C48EB0608C01B06FB02CCC8
:100510000BFB03CC71EB0C01C1E70B4602464146D5
:100520004846BDE8F08B13B54FF000004FF00001D6
:10053000AFF30080BDE81C40704710B500F05CF8D8
:10054000006810BD10B5044600F056F8046010BDF8
:1005500010B5203AC0F00B80B1E81850203AA0E85E
:100560001850B1E81850A0E81850BFF4F5AF5FEA92
:10057000027C24BFB1E81850A0E8185044BF18C945
:1005800018C0BDE810405FEA827C24BF51F8043BEC
:1005900040F8043B08BF7047D20728BF31F8023B40
:1005A00048BF11F8012B28BF20F8023B48BF00F8D4
:1005B000012B70474FF000020429C0F0128010F0A8
:1005C000030C00F01F80CCF1040CBCF1020F18BF2B
:1005D00000F8012BA8BF20F8022BA1EB0C0100F0C2
:1005E00011B85FEAC17C24BF00F8012B00F8012B91
:1005F00048BF00F8012B7047004870473C3A012083
:100600004FF0000200B5134694469646203922BFAB
:10061000A0E80C50A0E80C50B1F12001BFF4F7AFF6
:10062000090728BFA0E80C5048BF0CC05DF804EBD8
:10063000890028BF40F8042B08BF704748BF20F846
:10064000022B11F0804F18BF00F8012B70470000FB
:10065000004870473C3A01207546FFF7F9FFAE4667
:1006600005006946534620F00700854618B020B5BE
:10067000FFF764FEBDE820404FF000064FF0000792
:100680004FF000084FF0000B21F00701AC46ACE83A
:10069000C009ACE8C009ACE8C009ACE8C0098D46A7
:1006A000704710B50446AFF300802046BDE8104007
:1006B000FFF7D3BD10B51021014801F06DF910BD51
:1006C0000000024010B51021014801F063F910BD8F
:1006D0000000024010B50121014801F05DF910BD94
:1006E0000004024010B50121014801F053F910BD8A
:1006F000000402401CB5002000900190FFF7E2FFCB
:10070000922000F075FB06226946122000F050FB93
:10071000FFF7D0FF9DF80100000200B29DF8001025
:1007200040EA0104DC4804809DF80300000200B2A6
:100730009DF8021040EA0104D74844809DF8050066
:10074000000200B29DF8041040EA0104D2488480FF
:10075000FFF7C8FF08226946002000F029FBFFF7D9
:10076000B9FF9DF800000F2829D19DF80300000271
:1007700000B29DF8021040EA0104C748408B201ADD
:1007800000B2C549C8819DF80500000200B29DF87D
:10079000041040EA0104C048808B201A00B2BE4910
:1007A00008829DF80700000200B29DF8061040EA9A
:1007B0000104B948C08B201A00B2B7494882B74833
:1007C00090ED000AB8EEC00AB548D0ED000AB7EEC9
:1007D000001A71EE600A20EE200AAF48B0F900005E
:1007E00000EE900AF8EEE00AAD4890ED001A00EE37
:1007F000810ABDEEC00A10EE100AA849086000B2D6
:10080000A5490880A54890ED010AB8EEC00AA448A1
:10081000D0ED000AB7EE001A71EE600A20EE200A51
:100820000846B0F9020000EE900AF8EEE00A9C4893
:1008300090ED001A00EE810ABDEEC00A10EE100A1B
:100840009649486000B294494880944890ED020A65
:10085000B8EEC00A9248D0ED000AB7EE001A71EE69
:10086000600A20EE200A0846B0F9040000EE900A63
:10087000F8EEE00A8A4890ED001A00EE810ABDEE1B
:10088000C00A10EE100A8549886000B2824988804B
:10089000844890ED000AB8EEC00A8148D0ED000A05
:1008A000B7EE001A71EE600A20EE200A0846B0F991
:1008B0000E0000EE900AF8EEE00A794890ED001A7A
:1008C00000EE810ABDEEC00A10EE100A75490860FC
:1008D00000B27149C881734890ED010AB8EEC00AB0
:1008E0006F48D0ED000AB7EE001A71EE600A20EEF4
:1008F000200A0846B0F9100000EE900AF8EEE00A6F
:10090000674890ED001A00EE810ABDEEC00A10EEB5
:10091000100A6449486000B25F490882614890ED5E
:10092000020AB8EEC00A5E48D0ED000AB7EE001A1F
:1009300071EE600A20EE200A0846B0F9120000EEBF
:10094000900AF8EEE00A564890ED001A00EE810A8F
:10095000BDEEC00A10EE100A5249886000B24E493E
:1009600048820846B0F90E0000EE900AF8EEE00A60
:10097000B0EE600A4C4801F0F9FCBDEEC00A10EE82
:10098000100A00B24449C8810846B0F9100000EED0
:10099000900AF8EEE00AB0EE600A444801F0E6FC86
:1009A000BDEEC00A10EE100A00B23B4908820846AC
:1009B000B0F9120000EE900AF8EEE00AB0EE600A1C
:1009C0003B4801F0D3FCBDEEC00A10EE100A00B2A5
:1009D00031494882FFF776FEA22000F009FA022290
:1009E0006946222000F0E4F9FFF764FE9DF800005C
:1009F000C0009DF8011040EA6114B4F5806F02DB7D
:100A0000A4F5006004B2244884812A4822490A6877
:100A100002604A684260896881601F48B0F90E0030
:100A200000EE100AB8EEC00A2348D0ED000A20EE0E
:100A3000200A204880ED040A1748B0F9100000EEA3
:100A4000100AB8EEC00A1C48D0ED000A20EE200AB9
:100A5000184880ED050A1048B0F9120000EE100A9F
:100A6000B8EEC00A1448D0ED000A20EE200A114862
:100A700080ED060A0848B0F90C0000EE100AF8EE06
:100A8000C00AB4EE001AB3EE070A00EE810A094864
:100A900080ED030A1CBD00004E030020C8020020A8
:100AA0004C000020BC02002038020020640200201C
:100AB00090020020700300201800002010B50024D0
:100AC00000F0D6F805F056F8044305F0E7F80443C3
:100AD0000A2005F0A7FB00F003F8204610BD000037
:100AE0001CB5DFED5D0A9FED5D0A5D4805F0C6FCB3
:100AF000DFED590A9FED590A5A4805F0BFFCDFEDBA
:100B0000560A9FED560A584805F0B8FC00200090A0
:100B10000190002460E0FFF7D5FD922000F068F915
:100B200006226946122000F043F9FFF7C3FDFFF7E4
:100B3000D9FD08226946002000F03AF9FFF7CAFD06
:100B40009DF801009DF8001041EA00204749898A7C
:100B5000084400B2454988829DF803009DF80210C0
:100B600041EA00204149C98A084400B23F49C8828D
:100B70009DF805009DF8041041EA00203B49098BCF
:100B8000084400B2394908839DF803009DF802101B
:100B900041EA00203549498B084400B23349488373
:100BA0009DF805009DF8041041EA00202F49898B2B
:100BB000084400B22D4988839DF807009DF806106F
:100BC00041EA00202949C98B084400B22749C8835B
:100BD000052005F06DFB641CB4F5967F9BDB234874
:100BE000B0F914004FF4967190FBF1F000B21F4978
:100BF00088820846B0F916004FF4967190FBF1F028
:100C000000B21A49C8820846B0F918004FF496712C
:100C100090FBF1F000B2154908830846B0F91A00BC
:100C20004FF4967190FBF1F000B2104948830846EA
:100C3000B0F91C004FF4967190FBF1F000B20B4933
:100C400088830846B0F91E004FF4967190FBF1F0CE
:100C500000B20649C8831CBD0AD7233C0AD7A33B70
:100C60003802002064020020900200204E03002081
:100C700000B587B00121084601F0C2FD0121022024
:100C800001F0BEFD0121080301F0DAFD802005908E
:100C900002208DF8180000208DF81A008DF81B0036
:100CA00003208DF8190005A93E4800F0FFFD18202B
:100CB000059002208DF8180000208DF81A008DF89C
:100CC0001B0003208DF8190005A9374800F0EEFD40
:100CD0001020059001208DF8180000208DF81A00D2
:100CE00001208DF81B0003208DF8190005A92D485F
:100CF00000F0DCFD10212B4800F04EFE0120059095
:100D00008DF8180000208DF81A0001208DF81B00C6
:100D100003208DF8190005A9234800F0C7FD012123
:100D2000214800F039FE052207211E4800F006FE8A
:100D3000052203211C4800F001FE052204211A4867
:100D400000F0FCFD0121080301F08AFD00214FF4B1
:100D5000805001F085FD0020ADF800004FF4827056
:100D6000ADF802003820ADF80C000020ADF804000A
:100D70004FF40070ADF80A000220ADF80600012023
:100D8000ADF808000020ADF80E000A20ADF8100004
:100D90006946064801F0A0FE0121044801F082FEE8
:100DA00007B000BD000002400004024000300140D6
:100DB00070B506460C46154646F0800000F018F85F
:100DC00006E0552000F014F82070641C681EC5B2BF
:100DD000002DF6D170BD70B504460D4644F080007C
:100DE00000F006F8552000F003F8287070BD0000F0
:100DF00010B5044600BF02210A4801F05FFE00283A
:100E0000F9D02146074801F065FE00BF01210548E1
:100E100001F054FE0028F9D0024801F058FEC0B29B
:100E200010BD00000030014070B505460C46284654
:100E3000FFF7DEFF2046FFF7DBFF70BD10B5002097
:100E40000F4908600F48006820F003000D49086052
:100E50000846006840F00100086000200A49C1F817
:100E60008002022005F000FA0120054908600220F6
:100E700005F0FAF900200449C1F8840210BD000011
:100E80008482424200140240008042421CB501218B
:100E9000202001F0B5FC0320009001208DF8040013
:100EA00003208DF8050000208DF8060001208DF844
:100EB00007006946044800F0F9FC01200349086076
:100EC0000349C1F880021CBD0014024084824242E2
:100ED0000080424210B500200F4908600F480068AA
:100EE00020F003000D4908600846006840F001004A
:100EF000086001200A49C1F88002022005F0B4F917
:100F0000012005490860022005F0AEF900200449DF
:100F1000C1F8840210BD00008482424200140240E5
:100F20000080424270B5054600241648006820F053
:100F3000030014490860084600680860002616E0AF
:100F4000002011490860022005F08EF901200F49A8
:100F5000C1F884026006040E0B488438006808B1AA
:100F6000601CC4B2012005F07FF9701CC6B2082EC7
:100F7000E6DB15B9FFF7AEFF01E0FFF75FFF2046A4
:100F800070BD000000140240848242420080424250
:100F900070B504461548006820F003001349086046
:100FA0000846006840F00100086000201049086011
:100FB000002517E0E0090E49091F08606006040ECD
:100FC000022005F051F901200A49C1F884020220EB
:100FD00005F04AF9002006490860022005F044F9AE
:100FE000681CC5B2082DE5DB70BD0000001402408E
:100FF000848242420080424210B50F48006820F0CF
:1010000003000D4908600846006840F001000860D0
:1010100001200A4908600A49C1F88402042005F049
:1010200023F9002005490860042005F01DF900207F
:101030000349C1F8840210BD00140240808242427C
:101040000080424210B50F48006820F003000D49AF
:1010500008600846006840F00100086000200A4966
:1010600008600A49C1F88002042005F0FDF801205B
:10107000054908600549C1F88002042005F0F4F82C
:1010800010BD0000001402408482424200804242AF
:1010900010B500241348006820F0030011490860CF
:1010A00008460068086001200F49086005F0DCF878
:1010B00001200E49C1F8840205F0D6F807E0601C53
:1010C000C4B2FA2C03DDFFF7BDFF012010BD0648B6
:1010D000803800680028F2D10349091D086000BF6C
:1010E000F4E7000000140240808242420080424245
:1010F0002DE9F0410746884615461E460024FFF7B5
:101100007BFF3846FFF744FFFFF7C2FF4046FFF77B
:101110003FFFFFF7BDFFFFF76FFF47F00100FFF74D
:1011200037FFFFF7B5FF00BF0CE0681EA04204D1F7
:101130000020FFF7F7FE305503E00120FFF7F2FE35
:101140003055641CAC42F0DBFFF77CFFBDE8F0815A
:1011500070B504460D460026FFF74EFF2046FFF708
:1011600017FFFFF795FF2846FFF712FFFFF790FFE5
:10117000FFF742FF44F00100FFF70AFFFFF788FF87
:101180000020FFF7CFFE0646FFF75CFF304670BD3C
:1011900070B506460C461546FFF72EFF3046FFF7A2
:1011A000F7FEFFF775FF2046FFF7F2FEFFF770FF2F
:1011B0002846FFF7EDFEFFF76BFFFFF743FF70BD1B
:1011C000024A1060014A1032116070472C0800403A
:1011D00000B58BB00121042001F022FB0121082081
:1011E00001F00EFB02220E211F4800F0A7FB4FF476
:1011F0008040099002208DF8280000208DF82A00F8
:1012000003208DF8290009A9174800F04FFB53204F
:10121000ADF818000020ADF81A0040F257200790F2
:101220000020ADF8200006A9104801F047FF00207B
:1012300003906020ADF804000120ADF80600002006
:10124000ADF8100001A9094801F094FE08210748F3
:1012500001F0E0FE0121054801F0A0FD0121034855
:1012600001F0ABFD0BB000BD000C024000080040D7
:1012700010B5A82004F0B4FF01F0BCF800F018FA93
:10128000FFF71CFC01F048FDFFF7A2FF01F086FB11
:1012900003F006F8FFF7FAFD04F0EEFE10BD00BF04
:1012A000FEE7000010B50949094800F023F90128BC
:1012B00007D10021064800F03FF82C21044800F037
:1012C00095F90249024800F01DF810BD0080202069
:1012D000A064024010B50949094800F00BF9012843
:1012E00007D10021064800F027F80A21044800F041
:1012F0007DF90249024800F005F810BD0080002881
:10130000B86402400246094B9A4201D2084801E003
:101310000648103801F000531BB1064B0B40C36068
:1013200002E0044B0B4083607047000010640240F1
:10133000006002407D0F7D0F21B1026842F0010282
:10134000026003E0026822F00102026070470000C0
:10135000016821F0010101600021016041608160AC
:10136000C1600161212141614A49884204D13D2186
:10137000484A103A91608CE046491831884205D1BC
:101380004FF47461434A103A916082E04149303130
:10139000884205D14FF474113E4A103A916078E0CA
:1013A0003C494831884205D14FF07461394A103ABE
:1013B00091606EE037496031884204D13649354A40
:1013C000103AD16065E033497831884204D133491D
:1013D000304A103AD1605CE02E499031884204D105
:1013E0002F492C4A103AD16053E02A49A83188424B
:1013F00005D14FF03D51274A103AD16049E02949C3
:10140000884204D13D21274A083A116041E025492C
:101410001831884205D14FF47461224A083A1160AC
:1014200037E020493031884205D14FF474111D4A0C
:10143000083A11602DE01B494831884205D14FF030
:101440007461184A083A116023E0164960318842F5
:1014500004D11149134A121F11601AE01149783161
:10146000884204D10D490F4A121F116011E00D4945
:101470009031884204D10A490A4A121F116008E0DB
:101480000849A831884204D14FF03D51054A121F46
:1014900011607047106002403D000020400F0020A6
:1014A00000003D201064024021B1026842F4802215
:1014B000026003E0026822F480220260704722B1D9
:1014C000036843F40023036003E0036823F400236C
:1014D0000360016170470146486880B27047014669
:1014E00000200A6802F400220AB1012000E0002076
:1014F0007047000070B50246002000240025124EFF
:10150000B24201D2114B01E00F4B103B104E0E4086
:1015100036B11E2606EAD124166806EA040502E062
:10152000566906F0800501F000560EB15C6800E0D7
:101530001C68084E344004EA010616B10DB10120C2
:1015400000E0002070BD0000106402400060024016
:101550003C0F3C0F7D0F7D0F10B501F080034BB1A8
:1015600022B1436943F08003436103E0436923F000
:101570008003436180290BD02AB1036801F01E0467
:101580002343036004E0036801F01E04A3430360E7
:1015900010BD000010B500220268134B1A40CC6841
:1015A0000B6823434C6923438C692343CC69234351
:1015B0000C6A23434C6A23438C6A23434C6B2343BA
:1015C0008C6B23431A430260426922F00702D1E97F
:1015D0000B3423431A4342610B6943604B688360B9
:1015E0008B68C36010BD00003F801CF041607047F5
:1015F00064212D4A11600178427841EA0221C1F349
:101600000A01A1F58061294A11804178C9108278C8
:1016100041EA4211C1F30A01A1F58061234A5180D8
:1016200081788911C27841EA8201027941EA8221F6
:10163000C1F30A01A1F580611C4A9180017949102A
:10164000427941EAC211C1F30A01A1F58061174A4A
:10165000D180017C427C41EA0221C1F30A01A1F55B
:101660008061124A11814179091189089172417989
:10167000C1F30111D1728179C27941EA022109B223
:101680000A4A9181017A427A41EA02210AB2074963
:10169000CA81027B8A74427BCA74817BC27B41EA25
:1016A000022202498A827047680000202803002035
:1016B00010B500F04DF800F099F800F001F810BDF9
:1016C00000B58FB00121480501F09AF81D48FFF7D9
:1016D0003FFE4FF0006000901B4801901B480290B5
:1016E0000020039012200490002005904FF48060A9
:1016F00006900020079008904FF4807009904FF4F6
:1017000040300A9000200B900C900D900E9069468E
:101710000C48FFF73FFF00220C4912310948FFF740
:10172000CEFE01210748FFF7BFFE01210548FFF764
:1017300003FE012240210448001F02F0BDF90FB052
:1017400000BD00002860024004480040040300205F
:1017500000B587B00121042001F052F8012188046E
:1017600001F05EF807220B211D4800F0E7F84FF466
:101770000060059002208DF8180003208DF81900F4
:1017800000208DF81A0001208DF81B0005A91448CF
:1017900000F08CF8134801900020ADF80800ADF877
:1017A0000A004FF48060ADF80C000020ADF8100086
:1017B0000420ADF80E0001A90B4802F0D5F9102164
:1017C000094802F055F9012240F22441064802F08E
:1017D000A6F90121044802F063F907B000BD00003A
:1017E00000080240A08601000048004008B52720FC
:1017F0008DF8000001208DF8010000208DF8020016
:1018000001208DF80300684600F05CFE08BD7047BB
:1018100010B5402000F03EF818B34021134800F006
:10182000B0F850B1124800681249096842F21072CB
:1018300002FB01001049086013E00D4800680D49E3
:10184000096842F2107202FB01000C490860084668
:10185000006809490968401A0949086001200949D6
:101860000860402000F010F810BD00000020024089
:1018700024040140E0000020E4000020E8000020F3
:10188000EC000020DC0000200149086070470000E7
:10189000143C014001460020034A12680A400AB184
:1018A000012000E000207047143C0140F0B50A46DA
:1018B00000210023002400BF3DE0012505FA01F3CB
:1018C000156805EA03049C4234D105684F000326DD
:1018D000BE40B543056015794E00B54006683543F6
:1018E00005601579012D02D01579022D16D1856874
:1018F0004F000326BE40B543856055794E00B54084
:10190000866835438560456801268E40B54345604D
:10191000456896798E40B6B235434560C5684F003C
:101920000326BE40B543C560D5794E00B540C668B4
:101930003543C560491C1029BFD3F0BDF0B5002365
:1019400000244D07ED0E02FA05F3CE1000F120053C
:1019500055F826504E07F70E0F26BE40B543CF1060
:1019600000F1200646F82750CE1000F1200555F86A
:10197000265045EA0304CE1000F1200545F8264024
:10198000F0BD0246002013690B400BB1012000E0BE
:1019900000207047418370470183704742694A4085
:1019A000426170472DE9F04706F02AFE0025044603
:1019B0004FF0E02040694FF0E0218969401A4FF470
:1019C0007A7148434FF0E0214969B0FBF1F0002102
:1019D0004FF47A7CA046A8FB0C2A05FB0CA304FB61
:1019E0000133861841EB030730463946BDE8F087DE
:1019F00000BFFEE700B52DED108B93B0FE4890EDD3
:101A0000000AD0ED000A20EE200A8DED060A90EDC6
:101A1000000AFA48D0ED000A20EE200AF0EE40CA93
:101A2000F54890ED000AF648D0ED000A20EE200AB5
:101A3000B0EE409AF04890ED000AF248D0ED000A6E
:101A400020EE200A8DED050AEC4890ED000AD0ED5D
:101A5000000A20EE200AB0EE40DA90ED000AE848D5
:101A6000D0ED000A20EE200A8DED040AE34890ED47
:101A7000000AE448D0ED000A20EE200AF0EE409A79
:101A8000DF4890ED000AD0ED000A20EE200AB0EE0B
:101A900040AA90ED000ADB48D0ED000A20EE200AB3
:101AA000F0EE40DA90ED000AD0ED000A20EE200AB8
:101AB000B0EE40EAD44890ED040AD44880ED000A24
:101AC000D14890ED050AD24880ED000ACE4890ED4D
:101AD000060AD04880ED000ACB48B0F9000000EEBD
:101AE000100AB8EEC00ACC4880ED000AC648B0F92A
:101AF000020000EE100AB8EEC00AC84880ED000AE5
:101B0000C148B0F9040000EE100AB8EEC00AC4489B
:101B100080ED000ABC48B0F9060000EE100AB8EEED
:101B2000C00AC04880ED000AB748B0F9080000EECE
:101B3000100AB8EEC00ABC4880ED000AB248B0F9FD
:101B40000A0000EE100AB8EEC00AB84880ED000A9C
:101B5000B7480068B749086008460068B649096890
:101B6000401A00EE100AB8EE400ADFEDB40A80EE2B
:101B7000201AF0EE418AAF480068AF490860A648D5
:101B8000D0ED000A90ED001A60EE810AA34890EDB6
:101B9000001AD0ED001A41EE210AA14890ED001A7A
:101BA000D0ED001A41EE210AB0EE600A04F04CFCC0
:101BB000B0EE408A984890ED000A20EE080A80EDC9
:101BC000000A964890ED000A20EE080A80ED000A0F
:101BD000934890ED000A20EE080A80ED000A9FED80
:101BE000980A904880ED000A9FED950A8E4880ED96
:101BF000000A9FED930A8D4880ED000A894890ED18
:101C0000000AF0EE000A20EE200AF6EE000A70EE5E
:101C1000CA0A70EECE0A20EE200A8348D0ED000AF0
:101C2000B0EE001A60EE811ADDED040A9DED051A92
:101C300070EEC10A01EEA00A7C48D0ED000AB0EEB9
:101C4000001A60EE810A39EE891A00EE810A8DEDE4
:101C5000110A744890ED000AF0EE000A20EE201AF6
:101C60009DED040ADDED050A30EE200A21EE000AA2
:101C70006D48D0ED000AB0EE001A60EE810AB6EEB3
:101C8000001A31EE4D1A31EE4E1A00EE810A674805
:101C9000D0ED000AB0EE001A60EE810A3DEEEC1ABB
:101CA00000EE810A8DED100A5E4890ED000AF0EE1C
:101CB000000A20EE200A79EEC90A20EE200A5A48CE
:101CC000D0ED000AB0EE001A60EE810A3DEEAC1ACB
:101CD00000EE810A5548D0ED000AB0EE001A60EE21
:101CE000810AB6EE001A31EE4D1A31EE4A1A00EEB4
:101CF000810AF0EE40AA9DED110A60EE000A9DED0A
:101D0000100A40EE000A10EE901A084607F0DCFCBC
:101D1000CDE900019DED000B03F00AFE8DED020BF5
:101D20009DED020B51EC100B06F0C0FE0EEE900A7A
:101D3000B0EE6AFA39EEC90AF0EE000A20EE200A87
:101D40008DED0F0A3CEEAD0AF0EE000A20EE200AFF
:101D50008DED0E0A9DED060A30EE4D0A30EE4A0A70
:101D600030EE0E0A8DED0D0AB0EE000A2EEE800A5E
:101D7000F6EE000A70EECA0A70EECE0A20EE200AD5
:101D8000F0EE000A6FEE200A39EEC91A00EE810A61
:101D90008DED0C0AB0EE000A2EEE801A9DED040ABD
:101DA000DDED050A30EE600A21EE000AF0EE000AD1
:101DB0006FEE200A3CEEAD1A00EE810A8DED0B0AA3
:101DC000B0EE000A2EEE800A79EE290A20EE200AF3
:101DD000F0EE000A6FEE200AB6EE001A31EE4D1A50
:101DE00031EE4A1A00EE810A8DED0A0A0B48D0ED59
:101DF000000A9DED0D0A25E06C0000207000002017
:101E0000740000207800002070030020880000206B
:101E10008C000020900000209400002098000020FA
:101E20009C000020A0000020A4000020A8000020AA
:101E3000CC000020B0000020AC0000200000FA44DC
:101E40000000000020EE800AB54890ED001ADDED9C
:101E50000E0A01EE600AB34890ED001ADDED0A0AA1
:101E600021EE201AB048D0ED001ADDED0B0A01EE8C
:101E7000E01A30EE010AF0EE40FAA948D0ED000A6F
:101E80009DED0F0A60EE800AA84890ED001A9DEDC6
:101E90000D0A41EE400AA44890ED001A9DED0C0A8F
:101EA00021EE001AA248D0ED001A9DED0A0A01EEBB
:101EB000C01A30EE810A8DED090A9C48D0ED000A67
:101EC0009DED0E0A20EE800A9A4890ED001ADDED95
:101ED0000F0A01EE600A964890ED001ADDED0B0A3C
:101EE00021EE201A8F48D0ED001ADDED0C0A01EE2C
:101EF000E01A30EE010A8DED080AF5EEC0FAF1EEB7
:101F000010FA63D09DED090AB5EEC00AF1EE10FAA1
:101F10005CD09DED080AB5EEC00AF1EE10FA55D07E
:101F20009FED850A6FEE800A844890ED000A00EE6E
:101F3000A80A80ED000A9DED090ADFED7F0A60EE38
:101F4000200A7F4890ED000A00EEA80A80ED000A02
:101F50009DED080ADFED780A60EE200A794890EDE1
:101F6000000A00EEA80A80ED000A774890ED000A0A
:101F7000F0EE000A00EEAF0A7048D0ED000A30EE35
:101F8000200A714880ED000A7048D0ED000A9DEDEE
:101F9000090AB0EE001A41EE000A694890ED000A05
:101FA00030EE800A694880ED000A6948D0ED000AE9
:101FB0009DED080AB0EE001A41EE000A614890ED6E
:101FC000000A30EE800A624880ED000A614890ED18
:101FD000000AB1EE400A5C48D0ED000A20EE200A6B
:101FE0005D48D0ED000A594890ED001A00EEC10A94
:101FF0005A4890ED001A5648D0ED001AF0EE400A0B
:1020000041EE610A564890ED000A00EEA80A8DEDF7
:10201000070A90ED000A4C48D0ED000A20EE200A95
:102020004D48D0ED000A4A4890ED001A00EE810AB2
:102030004A48D0ED000A454890ED001A00EEC10A6A
:102040004448D0ED000AB0EE60BA00EE28BA444829
:1020500090ED000A3D48D0ED000A20EE200A3D48F0
:10206000D0ED000A3A4890ED001A00EEC10A3B4854
:10207000D0ED000A344890ED001A00EE810A36488F
:10208000D0ED000AF0EE60BA40EE28BA344890ED88
:10209000000A2F48D0ED000A20EE200A2D48D0ED8E
:1020A000000A2A4890ED001A00EE810A2A48D0ED75
:1020B000000A254890ED001A00EEC10A2748D0ED2D
:1020C000000AB0EE60CA00EE28CADDED070A60EE35
:1020D000A00A4BEE0B0A4BEEAB0A4CEE0C0AB0EE2C
:1020E000600A04F0B1F9B0EE408A9DED070A20EED7
:1020F000080A1B4880ED000A2BEE080A154880EDFF
:10210000000A2BEE880A144880ED000A2CEE080A1B
:10211000124880ED000A13B0BDEC108B00BD00002A
:102120009C000020A4000020A800002094000020B3
:10213000A0000020980000200AD7233C7C0000204B
:102140008000002084000020880000208C000020F7
:102150009000002070000020740000207800002013
:102160006C00002010B52DED088B794890ED000A29
:10217000F8EE000A20EE200AD0ED000A20EE200A38
:102180007448D0ED000AB0EE001A60EE810A90EDBE
:10219000001A00EEC10AF7EE000A30EE200A10EE37
:1021A000101A084607F090FA41EC1A0B694890EDB6
:1021B000000AF0EE000A20EE200A6748D0ED000A7F
:1021C00020EE200A6548D0ED000AB0EE001A60EE5D
:1021D000810A5F4890ED001A00EE810A10EE101A95
:1021E000084607F071FA41EC1B0BB0EE4A1AF0EE0C
:1021F0006A1AB0EE4B0AF0EE6B0A02F065FCB0EE24
:10220000409AF0EE609A9FED560B53EC102B51EC78
:10221000190B06F063FF41EC180B06F047FC52491E
:1022200088624B4890ED000AF8EE000A20EE200A82
:102230004948D0ED000A20EE200A4848D0ED000AB7
:10224000B0EE001A60EE810A424890ED001A00EEEE
:10225000810A10EE101A084607F036FA41EC1A0B04
:10226000B0EE4A0AF0EE6A0A02F012F9B0EE409AB5
:10227000F0EE609A9FED3A0B53EC102B51EC190BDA
:1022800006F02CFF41EC180B06F010FC3649C86232
:10229000304890ED000AF8EE000A20EE200AD0ED5A
:1022A000000A20EE200A2C48D0ED000AB0EE001AF9
:1022B00060EE810A90ED001A00EEC10AF7EE000A06
:1022C00030EE200A10EE101A084607F0FDF941EC36
:1022D0001A0B1F4890ED000AF0EE000A20EE200ACB
:1022E0001C48D0ED000A20EE200A1C48D0ED000A60
:1022F000B0EE001A60EE810A174890ED001A00EE69
:10230000810A10EE101A084607F0DEF941EC1B0BAB
:10231000B0EE4A1AF0EE6A1AB0EE4B0AF0EE6B0A13
:1023200002F0D2FBB0EE409AF0EE609A9FED0C0BFB
:1023300053EC102B51EC190B06F0D0FE41EC180BAE
:1023400006F0B4FB08490863BDEC088B10BD000023
:102350007000002074000020780000206C00002035
:102360006666666666A64C4070030020F0EE400A82
:1023700090ED070A90ED001A20EE010A80ED010AA7
:1023800090ED080A90ED071AD0ED051A01EE210A2A
:1023900080ED030A90ED030A90ED091A30EE010A70
:1023A00090ED031AC1EE001AC0ED061A90ED010A75
:1023B00090ED061AD0ED011A70EEE11A01EE210A35
:1023C00080ED020A90ED060AB7EE001A31EE400ADF
:1023D00090ED031A20EE010A80ED040A90ED040A44
:1023E00080ED050A90ED020A80ED000A90ED020AE8
:1023F000704700001CB50121802000F001FA4FF465
:10240000E050009001208DF8040000208DF80600B7
:1024100003208DF8050069460448FFF747FA4FF49A
:10242000E0510248FFF7B6FA1CBD0000001C024054
:1024300010B54FF400610248FFF7B0FA10BD00007C
:10244000001C024000BFFEE71B48807A022803D030
:102450001948C07A022802D100201849087017488C
:10246000007830B91448B0F9060000F5257032281C
:1024700021DC1148807A032807D10F48C07A03284D
:1024800003D101200D49087015E00B48807A03281C
:1024900007D10948C07A012803D1022007490870F2
:1024A00009E00548807A012805D10348C07A03284D
:1024B00001D1024908707047280300207C010020E8
:1024C0007047000070B5002100230F22C4781CB3B0
:1024D000174C246804F4E064C4F5E064C4F30721F5
:1024E000C1F10404E3B20A4144789C40E1B284782B
:1024F000144021430C07210E0E4C057861550478D9
:1025000004F01F050124AC4005786D11AD0005F104
:10251000E025C5F8004109E0047804F01F05012416
:10252000AC40054D0678761145F8264070BD000098
:102530000CED00E000E400E080E100E0024901432E
:10254000024A1160704700000000FA050CED00E03F
:1025500010B52DED088B0446B0EE408AF0EE608A8F
:1025600094ED110AC8EE000AB0EE608AC4ED108A3C
:1025700038EEC80A84ED030A94ED050A10EE101A2D
:10258000084607F0A1F841EC190B94ED030A10EE90
:10259000101A084607F098F841EC1B0BB0EE4B0AF6
:1025A000F0EE6B0A02F090FBB0EE40AAF0EE60AAEB
:1025B00053EC192B51EC1A0B06F054FD03D29FED8E
:1025C0005B0A84ED030A94ED000AD4ED030A20EEC1
:1025D000200A84ED060A94ED060AD4ED0B0AB4EE47
:1025E000E00AF1EE10FA03DD94ED0B0A84ED060A21
:1025F00094ED060AD4ED0B0AF1EE600AB4EEE00A9F
:10260000F1EE10FA05D294ED0B0AB1EE400A84ED1A
:10261000060A94ED070AD4ED010A94ED031A00EEC0
:10262000810A84ED070A94ED070AD4ED0C0AB4EE92
:10263000E00AF1EE10FA03DD94ED0C0A84ED070ACE
:1026400094ED070AD4ED0C0AF1EE600AB4EEE00A4C
:10265000F1EE10FA05D294ED0C0AB1EE400A84EDC9
:10266000070A94ED030AD4ED040A30EE600AD4EDB3
:10267000020A20EE200A84ED080A94ED080AD4ED3F
:102680000D0AB4EEE00AF1EE10FA03DD94ED0D0A46
:1026900084ED080A94ED080AD4ED0D0AF1EE600A03
:1026A000B4EEE00AF1EE10FA05D294ED0D0AB1EEA7
:1026B000400A84ED080A94ED060AD4ED070A30EECC
:1026C000200AD4ED080A30EE200AD4ED0A0A30EED2
:1026D000200A84ED090A94ED090AD4ED0E0AB4EE3D
:1026E000E00AF1EE10FA03DD94ED0E0A84ED090A1A
:1026F00094ED090AD4ED0E0AF1EE600AB4EEE00A98
:10270000F1EE10FA05D294ED0E0AB1EE400A84ED16
:10271000090A94ED090A84ED0F0A94ED030A84ED89
:10272000040A94ED090ABDEC088B10BD00000000FE
:102730009FED260A80ED000A9FED240A80ED010A34
:102740009FED220A80ED020A9FED200A80ED030A28
:102750009FED1E0A80ED040A9FED1C0A80ED050A1C
:102760009FED1A0A80ED060A9FED180A80ED070A10
:102770009FED160A80ED080A9FED140A80ED090A04
:102780009FED120A80ED0A0A9FED100A80ED0B0AF8
:102790009FED0E0A80ED0C0A9FED0C0A80ED0D0AEC
:1027A0009FED0A0A80ED0E0A9FED080A80ED0F0AE0
:1027B0009FED060A80ED100AB7EE000A80ED110ABF
:1027C0009FED020A80ED120A704700000000000031
:1027D00080ED000AC0ED010A80ED021AC0ED0B1A6F
:1027E00080ED0C2AC0ED0D2A80ED0E3AC0ED054AB1
:1027F000C0ED113A80ED124A80F84C10704700008D
:1028000029B1064A12680243044B1A6004E0034AE5
:1028100012688243014B1A60704700003038024052
:1028200029B1064A12680243044B1A6004E0034AC5
:1028300012688243014B1A60704700004038024022
:1028400029B1064A12680243044B1A6004E0034AA5
:1028500012688243014B1A607047000044380240FE
:1028600029B1064A12680243044B1A6004E0034A85
:1028700012688243014B1A607047000024380240FE
:10288000F0B5002100220024022500260223324F49
:102890003F6807F00C0121B1042905D0082937D180
:1028A00005E02E4F076036E02D4F076033E02A4FDA
:1028B0003F1F3F68C7F38056274F3F1F3F6807F011
:1028C0003F036EB1264FB7FBF3F7DFF88CC0ACF1D6
:1028D000040CDCF800C0CCF3881C07FB0CF40CE003
:1028E0001E4FB7FBF3F7DFF870C0ACF1040CDCF857
:1028F00000C0CCF3881C07FB0CF4174F3F1F3F6848
:10290000C7F301477F1C7D00B4FBF5F7076002E0C9
:10291000124F076000BF00BF0F4F3F6807F0F00184
:102920000909104F7A5C0768D74047600A4F3F6833
:1029300007F4E051890A0B4F7A5C4768D7408760FB
:10294000054F3F6807F46041490B064F7A5C4768C2
:10295000D740C760F0BD0000083802400024F400F2
:10296000001BB7002802002010B54C888B1D18559D
:102970004B885B1C9BB24B80934201DB00234B8056
:102980004B880C88A34207D10B885B1C9BB20B8041
:10299000934201DB00230B8010BD000000B58BB01B
:1029A00001210846FFF74CFF01211020FFF728FF07
:1029B000012209213948FEF7C1FF01220B213748C6
:1029C000FEF7BCFF01220D213448FEF7B7FF0122BC
:1029D0000E213248FEF7B2FF4FF4D4400990022096
:1029E0008DF8280000208DF82A0003208DF829009A
:1029F00001208DF82B0009A92848FEF757FFA720D2
:102A0000ADF818000020ADF81A0044F61F600790DA
:102A10000020ADF8200006A9214800F04FFB4FF43C
:102A2000FA6003906020ADF804000120ADF80600C4
:102A30000020ADF810004FF48070ADF8140001A92B
:102A4000174800F0EFF90821154800F029FA01A90C
:102A5000134800F02FFA0821114800F07DFA01A96F
:102A60000F4800F087FA08210D4800F0D3FA01A9B9
:102A70000B4800F0D9FA0821094800F011FB0121A8
:102A8000074800F08BF90121054800F0A2F9012167
:102A9000034800F092F90BB000BD000000100240A6
:102AA0000000014021B1028842F04002028004E0AF
:102AB00002884FF6BF731A4002807047024600201A
:102AC00013890B400BB1012000E000207047014644
:102AD000888970478181704710B50022028802F40E
:102AE00041520B884C8823438C882343CC88234352
:102AF0000C8923434C8923438C892343CC8923436A
:102B00001A430280838B4FF2FF74234083830B8A26
:102B1000038210BD0CB5002001900090344800687D
:102B200040F480303249086000BF3148006800F44A
:102B3000003000900198401C0190009818B901984D
:102B4000B0F5A04FF1D12A48006800F4003010B170
:102B50000120009001E0002000900098012846D15B
:102B600023484030006840F08050214940310860DF
:102B70002048006840F440401E4908601C48083066
:102B800000681B49083108600846006840F40040AE
:102B900008600846006840F4A05008601648091F05
:102BA0000860081F006840F08070091F086000BFBF
:102BB0000F48006800F000700028F9D040F205705E
:102BC0000E4908600A480830006820F003000849F0
:102BD000083108600846006840F00200086000BF45
:102BE00003480830006800F00C000828F8D10CBD3C
:102BF00000380240007000400C544007003C024086
:102C0000042808D14FF0E021096941F004014FF098
:102C1000E022116107E04FF0E021096921F0040191
:102C20004FF0E0221161704710B505F0D9FC012882
:102C300001D005F019F910BD10B51548006840F431
:102C40007000134908601348006840F00100114902
:102C5000086000200F49083108600E4800680E49DE
:102C600008400C4908600D48091D0860081F0068ED
:102C700020F48020091F0860002006490C310860FC
:102C8000FFF748FF4FF0006001498039086010BD30
:102C900088ED00E000380240FFFFF6FE103000240F
:102CA00010B50121164800F0A3F8012823D11548DA
:102CB0000068401C134908601348B0F9120000EE88
:102CC000100AB8EEC00AF0EE000A20EE200ABDEEAF
:102CD000C00A0E4880ED000A0D4890ED000A0B482E
:102CE000D0ED000AF8EEE00A9FED0A1A00EE810A24
:102CF000074880ED000A0121014800F05BF810BD93
:102D000000100040CC0000204E030020D400002022
:102D1000D000002082A8FB371FB501211020FFF74B
:102D20007FFD4FF47A7002905320ADF8040000202C
:102D3000ADF80600ADF80C0001A90D4800F0BEF991
:102D400036208DF8000000208DF801008DF802007B
:102D500001208DF803006846FFF7B4FB01221146FD
:102D6000034800F056F80121014800F026F81FBD85
:102D70000010004010B50121064800F039F840B1BC
:102D800005480068401C044908600121014800F022
:102D900011F810BD00040140E000002021B10288BC
:102DA00042F08002028004E002884FF67F731A40EE
:102DB00002807047CA430282704721B1028842F004
:102DC0000102028004E002884FF6FE731A4002807E
:102DD000704731B1B0F8442042F40042A0F84420DA
:102DE00005E0B0F84420C2F30E02A0F8442070477A
:102DF00030B50246002000230024158A05EA0103AD
:102E0000958905EA010413B10CB1012000E000200E
:102E100030BD1AB183890B43838102E083898B43E0
:102E20008381704770B5002400220023058C4FF683
:102E3000FE7635400584028C8388048B4FF68F75AF
:102E40002C40B51E2C400D882C43751E2A408D89C0
:102E50002A434D882A43104DA84202D00F4DA84264
:102E600013D14FF6F7752A40CD892A434FF6FB75EB
:102E70002A408D882A434FF6FF652B404FF6FF55B9
:102E80002B400D8A2B434D8A2B43838004838D680E
:102E90004563028470BD0000000001400004014051
:102EA0000A460021018B4FF6F77319401143018345
:102EB0007047000070B5002400220023058C4FF6F7
:102EC000EF7635400584028C8388048B48F6FF75C5
:102ED0002C404FF6FF452C400D884FF6FF7606EA52
:102EE00005252C434FF6DF752A408D8906EA051526
:102EF0002A434D8806EA05152A43154DA84202D0FB
:102F0000144DA8421DD14FF67F752A40CD894FF64A
:102F1000FF7606EA05152A434FF6BF752A408D88CD
:102F200006EA05152A434FF6FF352B404FF2FF7591
:102F30002B400D8A06EA85052B434D8A06EA850556
:102F40002B43838004838D688563028470BD0000F9
:102F500000000140000401400A460021018B4FF2AD
:102F6000FF7319404FF6FF7303EA022319430183ED
:102F70007047000070B5002400220023058C4FF636
:102F8000FF6635400584028C8388848B4FF68F75ED
:102F90002C404FF6FC752C400D882C434FF6FF5506
:102FA0002A408D894FF6FF7606EA05252A434D888B
:102FB00006EA05252A43154DA84202D0144DA84221
:102FC0001DD14FF2FF752A40CD894FF6FF7606EAF4
:102FD00005252A434FF6FF352A408D8806EA052548
:102FE0002A434EF6FF752B404DF6FF752B400D8A98
:102FF00006EA05152B434D8A06EA05152B43838007
:1030000084838D68C563028470BD000000000140A8
:10301000000401400A460021818B4FF6F7731940E6
:10302000114381837047000070B500220023002403
:10303000058C4EF6FF7635400584038C8488828BA0
:1030400048F6FF752A404FF6FF452A400D884FF697
:10305000FF7606EA05252A434DF6FF752B408D893C
:1030600006EA05352B434D8806EA05352B430A4D04
:10307000A84202D0094DA84208D14BF6FF752C405A
:103080000D8A4FF6FF7606EA85152C4384808283ED
:103090008D680564038470BD000001400004014098
:1030A0000A460021818B4FF2FF7319404FF6FF73E0
:1030B00003EA02231943818370470000002202883B
:1030C000184B98420ED0184B98420BD0B0F1804F5D
:1030D00008D0164B984205D0154B984202D0154B9C
:1030E000984204D14FF68F731A404B881A43124B03
:1030F000984207D0114B984204D04FF6FF431A4034
:103100000B891A4302804B68C3620B880385054B09
:10311000984202D0044B984201D18B7A0386012356
:103120008382704700000140000401400004004019
:1031300000080040000C0040001000400014004057
:1031400010B5044605F05CFA064951F82410401AFF
:10315000054941F8240005F053FA024941F82400DA
:1031600010BD0000E00A0020BC0A002010B504F0E9
:10317000BDF910BD10B52DED0A8BF848D0ED0A0A47
:10318000B0EE600AF648D0ED000AF648FFF7E0F925
:10319000F248D0ED0B0AB0EE600AF348D0ED000A19
:1031A000F0485030FFF7D4F9F048D0ED000AF0486D
:1031B00090ED000AEB48A030FFF7CAF9E94890ED1E
:1031C000091AF0EE410AEB48B0F90E0001EE100AC0
:1031D000B8EEC11ADFEDE81A21EE211AB0EE410A6D
:1031E000E648FFF7B5F9BDEEC00AE54880ED000AF4
:1031F000DC4890ED1D1AF0EE410ADE48B0F91000EF
:1032000001EE100AB8EEC11ADFEDDB1A21EE211A29
:10321000B0EE410AD9485030FFF79AF9BDEEC00A26
:10322000D84880ED000ACF4890ED311AF0EE410AFF
:10323000D048B0F9120001EE100AB8EEC11ADFED65
:10324000CE1A21EE211AB0EE410ACC48A030FFF789
:103250007FF9BDEEC00ACC4880ED000ACB49B1F938
:10326000060005F0D4FE41EC1C0B9FEDC90B53EC9E
:10327000102B05F04DFC41EC1B0B9FEDC70B53ECE5
:10328000102B05F001FD41EC1A0B9FEDC50B53EC23
:10329000102B05F023FF41EC190B05F089FEC24904
:1032A0000860BA48C07A012819D1C04890ED000BD7
:1032B00051EC100B05F0FAFB08EE900AF0EE680AEC
:1032C000BB4890ED000ABB48FFF742F9DFEDBA0AB0
:1032D00030EE200ABDEEC00AB34880ED000AAB48CC
:1032E000B0F9000000EE100AB8EEC00ADFEDB30A34
:1032F00080EE201A11EE104A204606F0E5F941EC66
:103300001B0B9FEDAF0B53EC102B05F0E7FE41ECD0
:103310001A0B9FEDAD0B53EC102B06F0EBF841ECC4
:10332000190B05F0C3FB8E4908609848B0F90200FC
:1033300000EE100AB8EEC00ADFEDA00A80EE201AF7
:1033400011EE104A204606F0BFF941EC1B0B9FED31
:103350009C0B53EC102B05F0C1FE41EC1A0B9FEDBA
:103360009C0B53EC102B06F0C5F841EC190B05F043
:103370009DFB7D4908608549B1F9040005F047FED1
:1033800041EC1C0B9FED940B53EC102B05F0A6FEAB
:1033900041EC1A0B7548006806F096F941EC1B0BDE
:1033A00053EC1A2B06F0A6F841EC190B05F07EFB46
:1033B0006E4908607549B1F90600002801DB014635
:1033C00000E04142C8293DDD7048B0F90600002800
:1033D0001CDD6E49B1F90610A1F1C80005F017FE19
:1033E00041EC1A0B9FED7E0B53EC102B05F076FE93
:1033F00041EC190B6D4890ED000B53EC102B51EC88
:10340000190B05F085FB694A03C21BE05F49B1F95E
:10341000061001F1C80005F0FAFD41EC1A0B9FED12
:10342000700B53EC102B05F059FE41EC190B5F4863
:1034300090ED000B53EC102B51EC190B05F068FBD1
:103440005A4A03C258480068962834DD5648006836
:103450004B49096808444B490968401A4A490968B8
:103460000844614908605048006845490968401AA5
:1034700044490968401A44490968401A5A49486051
:10348000494800683E490968401A3E4909680844AD
:103490003D490968084454498860434800683849F0
:1034A0000968084437490968084437490968401AD7
:1034B0004D49C860A8E04D480068401C4B49086071
:1034C0004B480068401C70B908460068B0F5167F8C
:1034D00006DA96204449086048608860C86002E0C7
:1034E0000020434908604248006878B93F480068B6
:1034F000B0F5487F07DA4FF496703B4908604860A2
:103500008860C86002E001203949086038480068D6
:1035100001280ED135480068B0F57A7F06DA96208A
:103520003149086048608860C86002E00220304984
:1035300008602F48006802285CD12C480068B0F56C
:10354000966F07DA4FF496702749086048608860E4
:10355000C86059E003202649086055E07003002048
:103560004401002064070020480100204C01002095
:10357000D00000204E0300200AD7233C540800202E
:1035800064010020680100206C0100202803002055
:103590000000000000A084400000000000A0944053
:1035A0000000000000208C4060010020500100203D
:1035B0001C0100204409002000009643000025441F
:1035C0000000000000003E40000000000000044039
:1035D000000000000000F03F613255302AA9333F5F
:1035E000F168E388B5F8E43EAC0A002058010020F9
:1035F0005C0100203A480068032805D1962039492B
:10360000086048608860C8609FED378A00201FE02E
:10361000344A52F82010002901DB0A4600E04A42F1
:1036200000EE102AB8EEC00AB4EEC80AF1EE10FAA5
:103630000DDD2C4A52F82010002901DB0A4600E07B
:103640004A4200EE102AB8EEC00AB0EE408A401C92
:103650000428DDDB9FED250AB4EEC08AF1EE10FAF6
:1036600018DD002014E09FED210AC0EE080A1D4974
:1036700051F8201000EE101AB8EEC00A20EE800AB1
:10368000BDEEC00A10EE101A164A42F82010401C77
:103690000428E8DB002009E0124951F82010002935
:1036A00003DA00210F4A42F82010401C0428F3DB03
:1036B0000C48006800F57A700D4948630948406875
:1036C00000F57A7088630748806800F57A70C863EF
:1036D0000448C06800F57A700864BDEC0A8B10BD20
:1036E0005C010020AC0A0020000000000080BB4408
:1036F0000000014010B59FED730A734880ED000A89
:103700009FED720A724880ED000A724890ED000A3F
:10371000714880ED000A7148006805F0D5FF704AD5
:1037200003C2002411E004EB84016E4A02EB011095
:10373000FEF7FEFF04EB84016B4A02EB0110FEF77B
:10374000F7FF6A48FEF7F4FF641C032CEBDB002153
:10375000DFED674A9FED664AF7EE003A9FED653A66
:10376000DFED642A9FED642ADFED621A9FED601A97
:10377000DFED5F0AB2EE040A5C48FFF729F800218A
:10378000DFED5B4A9FED5A4AF7EE003A9FED5B3A58
:10379000DFED5A2AB2EE042ADFED581A9FED541AD3
:1037A000DFED530A9FED560A4E48FFF711F800214E
:1037B000DFED4F4A9FED4E4AF7EE003A9FED513A4A
:1037C000DFED512A9FED512ADFED4F1A9FED501A80
:1037D000DFED500A9FED500A4348FEF7F9FF002144
:1037E000DFED434A9FED424AF7EE003A9FED433A40
:1037F000DFED422AB2EE042ADFED401A9FED3C1ABB
:10380000DFED3B0A9FED3E0A36485030FEF7E0FF01
:103810000021DFED374A9FED364AF7EE003A9FED83
:10382000393ADFED392A9FED392ADFED371A9FED5E
:10383000381ADFED380A9FED380A2B485030FEF772
:10384000C7FF0021DFED2A4A9FED294AF7EE003A33
:103850009FED2A3ADFED292AB2EE042ADFED271A7E
:103860009FED2E1ADFED220AB0EE000A1D48A030AF
:10387000FEF7AEFF0021DFED1E4A9FED1D4AF7EE79
:10388000003A9FED203ADFED202A9FED202ADFED60
:103890001E1A9FED171ADFED160AB0EE080A12483D
:1038A000A030FEF795FF4FF47A701D494863886396
:1038B000C86308644FF0FF301A4908601A4908606D
:1038C00010BD0000CDCC4C3E44010020CDCC4CBFFF
:1038D00048010020D00000204C0100201C010020E5
:1038E00050010020640700205408002044090020F3
:1038F000000000000000FA430000C84200007A44C3
:103900009A99193F0000C84300401C4600004842F5
:10391000CDCC4C3F6F12833A6666E63F9A99993E4A
:1039200000000140580100205C01002010B540F269
:103930002551094800F0C9F868B140F22551064800
:1039400000F09FF8044800F079F9C4B21C22034942
:103950002046FFF709F810BD00100140BC09002007
:1039600010B540F224411D4800F0AFF8002834D0D3
:1039700000241A4800F062F91948FDF7B0FDA8B913
:1039800000211748FDF7D8FC1548FDF7A4FD0446B3
:1039900012211348FDF72AFE01211148FDF7CCFC46
:1039A000122C19D10F48FDF723FE15E000210C4819
:1039B000FDF7C2FC0A48FDF78EFD044612210848B7
:1039C000FDF714FE01210648FDF7B6FC122C03D1C9
:1039D00004481238FDF70CFE00BF10BD004800403F
:1039E000286002401603002010B540F224411D4813
:1039F00000F06BF8002834D000241A4800F01EF9BB
:103A00001948FDF76CFDA8B900211748FDF794FC93
:103A10001548FDF760FD044626211348FDF7E6FD35
:103A200001211148FDF788FC262C19D10F4800F020
:103A30000DF915E000210C48FDF77EFC0A48FDF762
:103A40004AFD044626210848FDF7D0FD012106481D
:103A5000FDF772FC262C03D10448263800F0F6F856
:103A600000BF10BD00140140286402401E0C00205D
:103A700001F40072B2F5007F00D100BFCA4302809A
:103A8000704710B50022002340F66A14A14200D10D
:103A900000BF0A1201249440A3B2DC43048010BD8D
:103AA00021B1828942F40052828104E082894DF67C
:103AB000FF731A40828170471AB1838A0B43838255
:103AC00002E0838A8B438382704770B502460024EC
:103AD00000230025002040F66A16B14200D100BF45
:103AE000C1F3421501F01F03012606FA03F3012D6D
:103AF00002D19689334006E0022D02D1168A334066
:103B000001E0968A33400C12012606FA04F4168866
:103B1000344013B10CB1012000E0002070BDF0B5BD
:103B20000346002400260025002040F66A17B9420B
:103B300000D100BF1846C1F3421401F01F0601274F
:103B400007FA06F5012C01D10C3004E0022C01D15A
:103B5000103000E014301AB107682F43076002E00C
:103B60000768AF430760F0BD2DE9FF4705460E46E5
:103B70000024A14600BFA046B08900B100BF2C8A36
:103B800024F44054F08804432C82AC8941F20C6048
:103B90008443B08831890843718908430443AC8168
:103BA000AC8A24F44074B0890443AC826846FEF7C2
:103BB00067FE2048854202D01F48854202D1DDF8C9
:103BC0000C9001E0DDF80890A88900F4004040B1B5
:103BD00009EBC90000EB091031684900B0FBF1F7AF
:103BE00007E009EBC90000EB091031688900B0FB60
:103BF000F1F76420B7FBF0F004012009642101FB18
:103C00001078A88900F4004040B1322000EBC800D1
:103C1000B0FBF1F000F00700044308E0322000EBB5
:103C200008106421B0FBF1F000F00F0004432C8178
:103C3000BDE8FF870010014000140140014688885C
:103C4000C0F30800704700BFFEE7000010B52DED7F
:103C5000048B04462078FF287ED194F82500FE28A6
:103C6000FAD1CD4854F8011F0160A1888180CB486A
:103C7000D4F80610016061898180C948E16801605B
:103C8000218A8180C748D4F812100160E18A8180BE
:103C9000C548A1690160A18B8180C448D4F81E1079
:103CA0000160618C641E8180BD49B1F9000005F09E
:103CB000AEF941EC190B9FEDBE0B53EC102B04F049
:103CC000E3FF41EC180B04F0F1FEBB490860B44976
:103CD000B1F9020005F09BF941EC190B9FEDB40B13
:103CE00053EC102B04F0D0FF41EC180B04F0DEFE77
:103CF000B1494860AA49B1F9040005F088F941ECDE
:103D0000190B9FEDAB0B53EC102B04F0BDFF41ECF6
:103D1000180B04F0CBFEA84988609F49B1F9000058
:103D200005F075F941EC190B9FEDA10B53EC102B2D
:103D300004F0AAFF41EC180B04F0B8FE9E49086598
:103D40009549B1F9020005F062F941EC190B9FEDBC
:103D5000980B53EC102B00E01BE104F095FF41ECB5
:103D6000180B04F0A3FE944948658B49B1F904008F
:103D700005F04DF941EC190B9FED8D0B53EC102B19
:103D800004F082FF41EC180B04F090FE8A4988652C
:103D90008249B1F9000005F03AF941EC190B9FEDA9
:103DA000840B53EC102B04F06FFF41EC180B04F064
:103DB0007DFE8149C1F8A0007849B1F9020005F003
:103DC00026F941EC190B9FED7A0B53EC102B04F004
:103DD0005BFF41EC180B04F069FE7749C1F8A400C1
:103DE0006E49B1F9040005F012F941EC190B9FED91
:103DF000700B53EC102B04F047FF41EC180B04F050
:103E000055FE6D49C1F8A8006849B1F9000005F0F8
:103E1000FEF841EC190B9FED660B53EC102B04F0F0
:103E200033FF41EC180B04F041FE644908605F4920
:103E3000B1F9020005F0EBF841EC190B9FED5C0BBA
:103E400053EC102B04F020FF41EC180B04F02EFE75
:103E50005A4948605549B1F9040005F0D8F841ECD9
:103E6000190B9FED530B53EC102B04F00DFF41EC9D
:103E7000180B04F01BFE514988604A49B1F9000053
:103E800005F0C5F841EC190B9FED490B53EC102BD5
:103E900004F0FAFE41EC180B04F008FE47490865EF
:103EA0004049B1F9020005F0B2F841EC190B9FED61
:103EB000400B53EC102B04F0E7FE41EC180B04F020
:103EC000F5FD3E4948653749B1F9040005F09FF812
:103ED00041EC190B9FED360B53EC102B04F0D4FE84
:103EE00041EC180B04F0E2FD344988652E49B1F924
:103EF000000005F08CF841EC190B9FED2D0B53ECF5
:103F0000102B04F0C1FE41EC180B04F0CFFD2B493F
:103F1000C1F8A0002449B1F9020005F078F841EC9D
:103F2000190B9FED230B53EC102B04F0ADFE41EC6D
:103F3000180B04F0BBFD2149C1F8A4001A49B1F9DE
:103F4000040005F064F841EC190B9FED190B53ECDC
:103F5000102B04F099FE41EC180B04F0A7FD174953
:103F6000C1F8A800002012E09FED150A00EB8001C7
:103F7000114A02EB011181ED070A9FED110A00EBD6
:103F800080010E4A02EB011181ED070A401C032853
:103F9000EADBBDEC048B10BD8E01002094010020F3
:103FA0009A010020A0010020A6010020AC01002001
:103FB0000000000000002440640700205408002096
:103FC0000000000000B58FB0AF4890ED0B0ADFEDA8
:103FD000AF0A20EE200ABDEEC00A10EE100A00B2B1
:103FE0000E90A94890ED0C0ADFEDA80A20EE200AF9
:103FF000BDEEC00A10EE100A00B20D90A24890ED7E
:104000000A0ADFEDA20A20EE200ABDEEC00A10EE79
:10401000100A00B20C909E4890ED000AF2EE040ADD
:1040200020EE200ABDEEC00A10EE100A00B2ADF874
:104030001800974890ED010AF2EE040A20EE200ADB
:10404000BDEEC00A10EE100A00B2ADF81A0090489A
:1040500090ED020AF2EE040A20EE200ABDEEC00A3C
:1040600010EE100A00B2ADF81C00894890ED140A59
:10407000F2EE040A20EE200ABDEEC00A10EE100A8D
:1040800000B2ADF82800824890ED150AF2EE040A5D
:1040900020EE200ABDEEC00A10EE100A00B2ADF804
:1040A0002A007B4890ED160AF2EE040A20EE200A60
:1040B000BDEEC00A10EE100A00B2ADF82C00744834
:1040C00090ED280AF2EE040A20EE200ABDEEC00AA6
:1040D00010EE100A00B2ADF820006D4890ED290AEC
:1040E000F2EE040A20EE200ABDEEC00A10EE100A1D
:1040F00000B2ADF82200664890ED2A0AF2EE040AFA
:1041000020EE200ABDEEC00A10EE100A00B2ADF893
:104110002400604890ED000AF2EE040A20EE200A26
:10412000BDEEC00A10EE100A00B2ADF8000059480A
:1041300090ED010AF2EE040A20EE200ABDEEC00A5C
:1041400010EE100A00B2ADF80200524890ED020ADB
:10415000F2EE040A20EE200ABDEEC00A10EE100AAC
:1041600000B2ADF804004B4890ED140AF2EE040AD8
:1041700020EE200ABDEEC00A10EE100A00B2ADF823
:104180001000444890ED150AF2EE040A20EE200AD1
:10419000BDEEC00A10EE100A00B2ADF812003D48A4
:1041A00090ED160AF2EE040A20EE200ABDEEC00AD7
:1041B00010EE100A00B2ADF81400364890ED280A4F
:1041C000F2EE040A20EE200ABDEEC00A10EE100A3C
:1041D00000B2ADF808002F4890ED290AF2EE040A6B
:1041E00020EE200ABDEEC00A10EE100A00B2ADF8B3
:1041F0000A00284890ED2A0AF2EE040A20EE200A6E
:10420000BDEEC00A10EE100A00B2ADF80C00224854
:10421000BDF83810A0F80110BDF83410A0F8031054
:10422000BDF83010A0F80510C01D0A990160BDF856
:104230002C108180801D08990160BDF824108180B8
:10424000801D06990160BDF81C108180801D0499B5
:104250000160BDF814108180801D02990160BDF8D5
:104260000C108180801D00990160BDF804108180D0
:10427000FF2009490870FE2081F82B000121074822
:10428000FDF75AF80FB000BD700300200000C842CF
:104290006407002054080020CC0B0020A0640240DA
:1042A00000B597B001214020FEF7AAFA0121202095
:1042B000FEF7C6FA082209216448FDF73FFB0822F1
:1042C0000E216248FDF73AFB4FF48440159002201E
:1042D0008DF8580003208DF8590000208DF85A0001
:1042E00001208DF85B0015A95848FDF7DFFA4FF45F
:1042F000E13011900020ADF84800ADF84A00ADF86B
:104300004C00ADF850000C20ADF84E0011A95048FB
:10431000FFF72AFC10214E48FFF7AAFB012240F2CA
:1043200024414B48FFF7FBFB01214948FFF7B8FB4D
:1043300045208DF8400001208DF8410000208DF8C7
:10434000420001208DF8430010A8FEF7BBF847207B
:104350008DF8400001208DF8410000208DF84200CA
:1043600001208DF8430010A8FEF7ACF80121880564
:10437000FEF746FA4FF0206001903548001D02908C
:1043800034480390402004902C2005900020069093
:104390004FF4806007900020089009900A904FF435
:1043A00040300B9000200C900D900E900F9001A9C2
:1043B0002948FDF7EFF8012280212548FFF77CFB13
:1043C000012210212448FDF7C7F801212248FCF7FB
:1043D000B3FF4FF0206001901D48001D02901F4860
:1043E00003900020049026200590002006904FF4B2
:1043F000806007900020089009904FF480700A9028
:104400004FF440300B9000200C900D900E900F90C8
:1044100001A911487838FDF7BDF800220F4926316F
:104420000D487838FDF74BF801210B487838FDF737
:104430003BF8012240210648FFF73EFB01210648D8
:104440007838FCF779FF17B000BD00000018024073
:1044500000140140CC0B0020A0640240F80B0020A7
:1044600003B401984100009850EAC12018BF04200D
:104470004A0D18BF40F0010040F2FF72B2EB515FED
:1044800008BF40F00200012808BF052002B07047B5
:1044900070B5C1482DED020B2DED0E8B82B0119D34
:1044A00025F000449FEDBEDB9FEDBFEB84423EDB79
:1044B000A4F140511098A1F17F6108430FD0BC488E
:1044C000844202DC28D1109830B39DED100B02B06D
:1044D000BDEC0E8B02B0BDE8704001F0FDBA9DED61
:1044E000100B53EC1D2B51EC100B04F0F7FD9DED60
:1044F000100B41EC180B53EC1E2B51EC100B04F07D
:10450000EDFD53EC182B04F003FB41EC100B02B053
:10451000BDEC0E8B02B070BD0120FCF713F802B0A9
:10452000BDEC0E8B02B0BDE8704001F0E9BAA148C5
:104530009FEDA18B844256DA9DED100BB4F1795FAB
:104540000ADA51EC100BFFF78BFF042808BF01F0CB
:10455000F7FA9DED100BDAE753EC102B51EC100B32
:1045600004F0BCFD41EC190B95480621B0EE490A58
:10457000F0EE690A784401F018FA53EC192B51EC6B
:10458000100B04F0ABFD41EC1A0B8E48B0EE490A5B
:10459000F0EE690A0421784401F007FA53EC192B74
:1045A00051EC100B04F09AFD53EC182B04F0B0FA08
:1045B00041EC100B51EC1A0B53EC102B04F064FB84
:1045C000CDE900019DED000B53EC102B9DED100B80
:1045D00051EC100B04F082FD9DED101B53EC112BE0
:1045E00004F096FAD2E09DED100B51EC100B01F0A7
:1045F0006BFE53EC182B04F0A5FE9FED730BCDE979
:10460000000153EC102B9DED000B51EC100B04F04E
:1046100065FD41EC190B6E480621B0EE490AF0EE3B
:10462000690A784401F0C1F953EC192B51EC100BD5
:1046300004F054FD41EC1B0B6648B0EE490AF0EE65
:10464000690A0421784401F0B0F953EC192B51ECBC
:10465000100B04F043FD53EC182B04F059FA41EC15
:104660001C0B51EC190B02F0E9FE41EC180B5A48F7
:104670009FED5BABA04222DC53EC1C2B51EC1B0BDF
:1046800004F002FBCDE900019DED000B51EC180B8D
:1046900053EC102B04F022FD53EC182B04F038FAE5
:1046A00053EC1A2B04F01AFD53EC1D2B04F022FFDF
:1046B00053EC1E2B04F046FE41EC100B5FE08DED39
:1046C000008B002000909DED000B51EC180B53EC7B
:1046D000102B04F01DFA9DED000B41EC1E0B53EC6A
:1046E000102B51EC100B04F0F9FC53EC192B04F0D7
:1046F00029FE53EC1E2B04F0C7FA41EC190B53ECC6
:104700001C2B51EC1B0B04F0BFFA41EC1B0B53ECC0
:104710001A2B51EC190B04F0E1FC53EC1D2B04F0A7
:1047200011FE41EC190B53EC1A2B51EC180B04F051
:10473000D5FC53EC1B2B04F0D1FC53EC192B04F0EB
:10474000D9FE9DED000B41EC180B53EC1A2B51ECEC
:10475000100B04F0C3FC9FED249B53EC192B04F0C9
:10476000F1FD41EC100B51EC180B53EC102B04F045
:10477000C1FE53EC192B04F0E5FD41EC100B002DAC
:104780003FF7C5AE51EC100B04F084F941EC100B6F
:10479000BDE60000000000000000F03F0000000047
:1047A000075C143326A6913C182D4454FB21F93F95
:1047B0000000F07F0000E03F000000000000F03F3C
:1047C00098530000A6530000000000000000E03FE6
:1047D000EA520000F85200003333EF3F00000000BF
:1047E0000000000000000040182D4454FB21E93F68
:1047F00070B59B482DED020B2DED068B079D25F026
:104800000044A04218DC9748844202DC0AD1069892
:1048100040B19DED060BBDEC068B02B0BDE87040CB
:1048200001F05AB9002DCCBF9FED8F0B9FED900B7F
:10483000BDEC068B02B070BD8F48A04215DD8F48DD
:10484000A042D8BF4FF0FF3458DD9DED060B51EC70
:10485000100BFFF705FE042808BF01F071F99DED6C
:10486000060BBDEC068B02B070BD9DED060B51EC46
:10487000100B01F029FDCDE9060181489FED828BE7
:10488000A0423CDD8248A0421FDD00249FED82ABA8
:104890009DED060B53EC1A2B51EC100B04F038F97C
:1048A0009DED060B41EC190B53EC1A2B51EC100B40
:1048B00004F014FC53EC182B04F01CFE53EC192BE1
:1048C00004F0E2F9CDE9060149E09DED060B012473
:1048D00053EC182B51EC100B04F01AF99DED060B5C
:1048E00041EC190B53EC182B51EC100B04F002FEA9
:1048F00053EC192B04F0C8F9CDE906012FE0684804
:10490000A0421FDD02249FED689B9DED060B53EC3A
:10491000192B51EC100B04F0E1FB53EC182B04F0B5
:10492000F7F89DED060B41EC180B53EC192B51ECED
:10493000100B04F0DFFD53EC182B04F0A5F9CDE9C2
:1049400006010CE09DED060B032453EC102B9FEDAC
:10495000580B51EC100B04F097F9CDE906019DEDD1
:10496000060B53EC102B51EC100B04F0B7FB41EC91
:10497000180B53EC182B04F0B1FB41EC190B4E480B
:104980000621B0EE490AF0EE690A784401F00DF80C
:1049900053EC182B51EC100B04F0A0FB41EC180B5E
:1049A0004648B0EE490AF0EE690A0521784400F065
:1049B000FCFF53EC192B51EC100B04F08FFB41EC76
:1049C000100B51EC180B53EC102B002C0EDA04F0EA
:1049D0009FF89DED061B53EC112B04F07FFB9DED22
:1049E000061B53EC112B04F0ADFC35E004F090F8FD
:1049F0009DED061B53EC112B04F070FB41EC100BEA
:104A00002F48784400EBC40090ED001B51EC100BD4
:104A100053EC112B04F06EFD9DED061B53EC112B96
:104A200004F068FD41EC100B2648784400EBC4000C
:104A300090ED001B51EC100B53EC112B04F082FC99
:104A400041EC100B002DA2BFBDEC068B02B070BD77
:104A500051EC100B04F01EF841EC100B01E70000C4
:104A6000000010440000F07F182D4454FB21F93F52
:104A7000182D4454FB21F9BF0000DC3F0000203E0C
:104A80000000F33F00000000000000000000F03FC5
:104A90000000E63F000000000000000000000040B1
:104AA0000080034000000000000000000000F83F0C
:104AB000000000000000F0BFC2500000785000006D
:104AC00002500000BA4F000070B56F4E2DED040B80
:104AD0002DED048B82B0DDF824C0DDE907235C42B4
:104AE0002CF000411C4341EAD474069D22F00040A2
:104AF000B44205D86C422C4340EAD474B4420BD97A
:104B00009DED081B9DED060B02B0BDEC048B04B0BF
:104B1000BDE8704000F0EABFACF14054A4F17F64FE
:104B20001C430BD0022404EAAC7444EAD27405435B
:104B30009FED578B9FED582B07D015E09DED060B91
:104B400051EC100B01F00EF842E0002C11BF012CCB
:104B50009DED060B02B0BDEC048B04BF04B070BD2C
:104B6000022C38D0032C3BD00B439FED4D1B9FED07
:104B70004E0B0AD0B14218D1B04209D121F0804188
:104B800020F08040099107900FE0002A15DA10E02C
:104B9000474B7B44002C08BF93ED000B0DD0012C3C
:104BA00010D0022C17D0032C1AD0B0421DD1002AED
:104BB00003DAB0EE410AF0EE610A02B0BDEC048BFC
:104BC00004B070BD93ED000B51EC100B03F062FFCD
:104BD00041EC100BF1E7B0EE480AF0EE680AECE7A2
:104BE000B0EE420AF0EE620AE7E7401A00159FEDC8
:104BF000329B3C28C8BF8DED000B17DCBCF1000FC9
:104C0000BCBF10F13C0F8DED009B0FDB9DED080B41
:104C100053EC102B9DED060B51EC100B04F034F807
:104C200001F052FB00F09EFFCDE90001B4B1012C70
:104C300010D0022C9FED220B53EC102B9DED000B9E
:104C400051EC100B19D004F055FC53EC182B04F068
:104C500051FCBDE7019880F0004001909DED000BF4
:104C600053EC192B51EC100B04F066F904BF022031
:104C7000FBF768FC9DED000B9FE704F03BFC53EC59
:104C8000182B04F05FFBA3E70000F07F000000009A
:104C9000182D4454FB210940182D4454FB2109C010
:104CA000182D4454FB21F9BF182D4454FB21F93F22
:104CB000EA4E0000000000000000000000000000BC
:104CC000075C143326A6A13C2DED020B019820F0C1
:104CD000004001909DED000B02B070470000000005
:104CE0002DE9F04D2DED040B2DED0E8B96B0DDE989
:104CF0002550279CDDF890A025F0004624F00048C0
:104D0000BAF1000F14BF0121002101EB4502FC495B
:104D100053184A1093422AD3002814BF01230023BA
:104D200003EB44030B44F7498B4220D358EA0001BC
:104D30009FEDF59B76D0DFF8D8B35D4503D1BAF18E
:104D4000000F05D188E0BAF1000F08BF002100D0A4
:104D5000012101EB450111F5001F08D8002814BFFF
:104D60000121002101EB440111F5001F0BD99DED3C
:104D7000261B9DED240B16B0BDEC0E8B04B0BDE8D8
:104D8000F04D00F0B3BE0027002DBCBFE1498845BF
:104D900021DAE1498845A8BF02271CDAC3451ADC9D
:104DA000DE4901EB2851142908DDC1F1340220FA53
:104DB00002F101FA02F282420DD108E058B9C1F1C4
:104DC000140228FA02F101FA02F2424503D101F07D
:104DD0000101C1F1020756EA0A0124D1002C22DAAE
:104DE000002D18BF022F01D0012F0AD00220FBF79F
:104DF000A9FB16B0BDEC0E8B04B0BDE8F04D00F081
:104E000053BE0220FBF79EFB00F04EFE51EC100B50
:104E100003F040FE41EC100B16B0BDEC0E8B04B05D
:104E2000BDE8F08D18E09FEDBEAB9FEDBF8B002875
:104E300071D1B848804522D105F1804010F580102D
:104E400008BFBAF1000F07D0B3450ADC002CA8BF99
:104E50009DED260BE0DA0DE0B0EE490AF0EE690AAE
:104E6000DAE7002C06DA9DED260B51EC100B03F06F
:104E700011FE6FE0AE48784490ED000BCCE7D845CA
:104E80004DD1002C48DA2EB186423AD1BAF1000F4A
:104E900042D126E0BAF1000F13D00220FBF752FBFB
:104EA00000F03EFE8DED020B9DED240B8DED000B11
:104EB00010EE900A039961F31E0003909DED020B22
:104EC000AAE78DED02AB9DED240B1AEE901A10EEC1
:104ED000900A8DED000B61F31E0003909DED020B17
:104EE0009AE78DED028B9DED240B18EE901A10EED3
:104EF000900A8DED000B61F31E0003909DED020BF7
:104F00008AE709DA9DED240B51EC190B53EC102BB9
:104F100003F0BAFE1EE020E09DED240B7CE7864204
:104F20001BDAB4F1804F0DD0A4F10050B0F1FF5066
:104F300013D1002D11DB9DED240B51EC100B02F071
:104F40007DFA07E09DED240B53EC102B51EC100B78
:104F500000F0C2BC41EC100B5EE79DED240B51EC60
:104F6000100B01F0B1F9BAF1000FCDE90E0142D1F9
:104F70009FED710B46B3A6F1E040B0F17F600CD01D
:104F80005E4538D1002D00DAA7B3022F0CBF0120F7
:104F90004FF0FF3004F03BF8DCE7002D01DD002C82
:104FA0000DDA002D01DD002C1FDB002D16DA002CA0
:104FB00014DB012F08BF9FED620B3FF42DAFB0EE65
:104FC0004A0AF0EE6A0A27E7022F18BF002D0CD01C
:104FD000012F0AD1002DFFF61FAF06E0002DB8BF4C
:104FE000002C08DA012F3FF417AFB0EE480AF0EEBC
:104FF000680A11E71BE0012000EBE57050EA0701A9
:1050000015D0791EB0EE498AF0EE698A084308BFD0
:105010009FED4D8B4E480025804570DD4D494E4833
:10502000884514DDB0420DDB002C19DB2FE0012098
:10503000FBF788FA16B0BDEC0E8B04B0BDE8F04D5E
:1050400000F05EBDB34502DC002C09DC1FE08642A7
:1050500002DA002C1BDA03E05E452BDD002C16DDA6
:105060000220FBF76FFA00F05BFD8DED020B53ECB5
:105070001A2B51EC180B04F031F8CDE9000103991B
:10508000019861F31E0003909DED020BC4E602201F
:10509000FBF758FA00F054FD10EE901A18EE900A43
:1050A0008DED020B8DED008B61F31E0003909DEDE5
:1050B000020BB1E69DED0E0B53EC192B51EC100BCE
:1050C00004F018FA9FED260BCDE9080153EC102BE4
:1050D0009DED080B51EC100B04F000F89FED221B26
:1050E00053EC112B04F02EF99DED081B53EC112B02
:1050F00003F0F4FF9FED1E1B53EC112B3CE08CE002
:10510000FFFF1F00FFFF0F00000000000000F03F46
:105110000000F03F0000F07F0000404301FCFFFF73
:10512000000000000000F07F000000000000000010
:10513000064C00000000000000000000000000809D
:10514000000000000000F0FF000000000000F0BFC1
:105150000000E0410000F043FFFFEF3F00000000CF
:10516000000000000000D03F555555555555D53F1E
:10517000000000000000E03F04F0E4F89DED080BA3
:1051800041EC1A0B53EC102B51EC100B03F0A6FF63
:1051900053EC1A2B03F0A2FF41EC1A0B9FEDFE0B10
:1051A00053EC102B9DED080B51EC100B03F096FF08
:1051B00041EC1B0B9FEDFA0B51EC1A0B53EC102B2F
:1051C00003F08CFF41EC1A0B9FEDF70B53EC102B07
:1051D0009DED080B51EC100B03F080FF53EC1A2BE4
:1051E00004F088F941EC1A0B51EC1B0B53EC1A2B11
:1051F00003F08EFC0690CDE906519DED060B53ECB5
:105200001B2B51EC100B04F075F953EC1A2B04F026
:1052100099F841EC100B00F0A1B90020B6F5801F01
:105220000EDA9FEDE30B53EC102B9DED0E0B51ECC2
:10523000100B03F053FFCDE90E016FF034000E4662
:1052400000EB2650A0F2FF37C6F31300DA4940F016
:105250007F6646F040568842D8BF002408DDD74913
:105260008142C8BF012403DC0024A6F580167F1C00
:10527000D348784400EBC4000F9690ED00CB9DED31
:105280000E0B53EC1C2B51EC100B04F033F99DED7D
:105290000E0B41EC1B0B53EC1C2B51EC100B03F0D1
:1052A00037FC41EC100B51EC190B53EC102B03F0B5
:1052B000EBFC41EC1D0B51EC1B0B53EC1D2B03F0D5
:1052C0000DFF41EC1A0BBF488DED10AB78441095E3
:1052D00090ED000B4FF0005040EA660000EB844078
:1052E0008DED080B00F5002009909DED080B53ECA7
:1052F0001C2B51EC100B04F0FDF89DED0E1B53EC34
:10530000112B04F01FF841EC100B53EC102B9DED0A
:10531000100B51EC100B03F0E1FE9DED080B41EC7E
:105320001C0B53EC102B9DED100B51EC100B03F0EC
:10533000D5FE53EC1B2B04F005F853EC1C2B04F0AA
:10534000D9F853EC1D2B03F0C9FE41EC1C0B53ECB8
:105350001A2B51EC1A0B03F0C1FE41EC1B0B9A48BF
:105360000621B0EE4B0AF0EE6B0A784400F01DFB0C
:10537000B0EE401AF0EE601AB0EE41DAF0EE61DA0B
:1053800053EC1B2B51EC1B0B03F0A8FE53EC1D2B15
:1053900003F0A4FE9DED100B41EC1B0B53EC1A2BFC
:1053A00051EC100B03F0B4FB53EC1C2B03F096FEF6
:1053B00053EC1B2B03F0ACFB9DED100B41EC1B0BD6
:1053C00053EC102B51EC100B03F088FE41EC1D0B3D
:1053D0009FED7FEB53EC1E2B03F09AFB53EC1B2B42
:1053E00003F096FB0890CDE908519DED080B53ECB6
:1053F0001E2B51EC100B04F07DF853EC1D2B04F028
:1054000079F853EC1B2B03F09DFF9DED080B41EC4D
:105410001D0B53EC102B9DED100B51EC100B03F0FA
:105420005DFE41EC1B0B53EC1A2B51EC1D0B03F0F2
:1054300055FE9DED080B41EC1A0B53EC102B51EC73
:105440001C0B03F04BFE53EC1A2B03F061FB41ECF9
:105450001A0B51EC1B0B53EC1A2B03F059FB0C905D
:10546000CDE90C519DED0C0B53EC1B2B51EC100BAB
:1054700004F040F853EC1A2B03F064FF41EC1B0BD3
:105480009FED550B53EC102B9DED0C0B51EC100BBD
:1054900003F024FE41EC1A0B9FED510B51EC1B0B5A
:1054A00053EC102B03F01AFE41EC1B0B9FED4E0B3F
:1054B00053EC102B9DED0C0B51EC100B03F00EFE7A
:1054C00053EC1B2B03F024FB41EC100B48487844B1
:1054D00000EBC40090ED001B51EC100B53EC112BB2
:1054E00003F016FB41EC1B0B384603F090FDCDE9B1
:1054F000080153EC1B2B51EC1A0B03F009FB41EC98
:10550000100B3C48784400EBC40090ED00CB51EC0C
:10551000100B53EC1C2B03F0FBFA9DED081B53EC16
:10552000112B03F0F5FA0690CDE906519DED080B1D
:1055300053EC102B9DED060B51EC100B03F0DAFF32
:1055400053EC1C2B03F0D6FF53EC1A2B03F0D2FFC5
:1055500053EC1B2B03F0F6FE41EC100B9DED261BCC
:1055600053EC102B8DED001B00959DED260B51EC9F
:10557000100B03F0B3FD9DED000B41EC1A0B53EC47
:10558000102B9DED260B51EC100B03F0B3FF9DED9E
:10559000061B53EC112B2FE0000000604715F73F6E
:1055A000FE822B654715F73F44DF5DF80BAE543E96
:1055B00000000000000040438E9803007AB60B0004
:1055C000EA460000B047000022460000000000004C
:1055D0000000000000000840000000E009C7EE3FA6
:1055E000FD033ADC09C7EE3FF5015B14E02F3EBE38
:1055F000AE4400006844000003F070FD53EC1A2B29
:1056000003F086FA9DED060B41EC1A0B53EC102BC0
:105610009DED000B51EC100B03F060FDCDE90C018A
:105620009DED0C0B51EC1A0B53EC102B03F070FAA0
:10563000CDE902010C46AA498C422FDB611A0843CE
:1056400018D19DED0C0B53EC102B9DED020B51EC82
:10565000100B03F04FFF41EC1B0B9FEDA30B51EC24
:105660001A0B53EC102B03F053FA53EC1B2B03F0E3
:1056700033FE2DD20220FAF765FF00F051FA10EE4A
:10568000901A18EE900A8DED020B8DED008B61F3F0
:105690001E0003909DED020BFFF7BEBB944A24F061
:1056A0000041914214D39349214408437FF4EFAC65
:1056B0009DED0C0B53EC102B9DED020B51EC100BE0
:1056C00003F018FF53EC1A2B03F006FE7FF6DFAC55
:1056D00024F000408849894A002601EB205182428B
:1056E0002BDA481C4FF4801121FA00F02044844A40
:1056F000C0F30A517A44A1F2FF3192ED000B814AC6
:105700008DED080BCA4020EA0202C0F3130040F4FA
:105710008010C1F1140120FA01F60992002CB8BFE3
:1057200076429DED080B53EC102B9DED0C0B51ECCC
:10573000100B03F0DFFECDE90C019DED0C0B51ECDD
:105740001A0B53EC102B03F0E3F99FED6F0B08904D
:10575000CDE9085153EC102B9DED080B51EC100BCB
:1057600003F0BCFC41EC1B0B9FED690B53EC102BC1
:105770009DED080B51EC100B03F0B0FC9DED0C0BF4
:1057800041EC1C0B53EC102B9DED080B51EC100B56
:1057900003F0B0FE53EC1A2B03F0D4FD9FED5E1B1B
:1057A00053EC112B03F09AFC53EC1C2B03F0B0F9D3
:1057B00041EC1A0B51EC1B0B53EC1A2B03F0A8F91C
:1057C000CDE902019DED020B53EC1B2B51EC100BAC
:1057D00003F090FE53EC1A2B03F0B4FD9DED020B89
:1057E00041EC1A0B53EC102B51EC100B03F076FC30
:1057F000CDE908014A489DED080B0521784400F0E9
:10580000D4F89DED081B51EC100B53EC112B03F059
:1058100065FC9DED021B53EC112B03F093FDCDE9CC
:1058200006019DED020B53EC1A2B51EC100B03F00B
:1058300055FC53EC1A2B03F06BF99FED3B0B41EC3D
:105840001A0B53EC102B9DED060B51EC100B03F0D3
:1058500051FE9DED060B41EC1B0B53EC102B9DED07
:10586000020B51EC100B03F039FC53EC1B2B03F033
:105870000BFA53EC1A2B03F03DFE9DED021B53EC8B
:10588000112B03F037FE53EC192B03F05BFDCDE930
:10589000020101EB065001150029C8BF039015DC79
:1058A0009DED020B324651EC100B03F0EAFFFEF7C0
:1058B000D7FD042808BF00F043F932469DED020BE6
:1058C00051EC100B03F0DDFFCDE902019DED020B61
:1058D00051EC180B53EC102B03F000FCFFF73ABB14
:1058E0000000904000000000FE822B654715973CA9
:1058F00000CC904000346F3F01FCFFFF0000E03F10
:1059000088430000FFFF0F0000000000432EE63F29
:10591000396CA80C615C20BEEF39FAFE422EE63FDE
:10592000C041000000000000000000000000004036
:1059300000B52DED048BB0EE409AF0EE609A83B086
:1059400051EC190B03F00AFD41EC180B18EE100A8C
:1059500018EE901A8DED008B002818BF0120084327
:1059600020F00040C0F17F6000F1E040C00F14D093
:1059700019EE101A19EE900A8DED009B002918BF40
:105980000121084320F00040C0F17F6000F1E040B9
:10599000C00F04BF0120FAF7D5FDB0EE480A03B0EE
:1059A000F0EE680ABDEC048B00BD70B504462DED29
:1059B000028B4D1E00EBC500B0EE408AF0EE608A0F
:1059C00090ED000B35F0060017D053EC182B51EC7E
:1059D000100B03F083FB41EC100B6D1E04EBC500B4
:1059E00090ED001B51EC100B53EC112B03F090F8D1
:1059F00041EC100B35F00600E7D1022D36D0042D16
:105A00001CD0062D1CBFBDEC028B70BD53EC182BB7
:105A100051EC100B03F062FB94ED0A1B53EC112BBD
:105A200003F076F853EC182B03F058FB94ED081BA9
:105A300053EC112B03F06CF841EC100B53EC182BCA
:105A400051EC100B03F04AFB94ED061B53EC112BA9
:105A500003F05EF853EC182B03F040FB94ED040BBD
:105A600053EC102B03F054F841EC100B53EC182BB3
:105A700051EC100B03F032FB94ED021B53EC112B95
:105A800003F046F853EC182B03F028FB94ED001BB1
:105A900053EC112B03F03CF8BDEC028B41EC100BE6
:105AA00070BD0000000000009FED070B10B553EC27
:105AB000102B9FED070B51EC100B03F0E5F841ECB8
:105AC000100B10BD000000000000000000000000EE
:105AD000000000000000F03F10B553EC102B51EC1B
